:020000040800F2
:10800000D06E0020458100083BFF00082DDD0008F0
:108010000000000000000000000000000000000060
:108020000000000000000000000000004D140108E6
:108030000000000000000000038100082D6401081A
:108040005781000800000000FD0201085781000868
:1080500057810008859E0008959E00089F9E000895
:1080600000000000D59D0008E59D0008578100082C
:108070003996000875650108578100080000000066
:108080005781000885650108BD6501085781000812
:108090005781000857810008578100085781000860
:1080A0005781000857810008578100085781000850
:1080B0001D6C01082D6C01080348854601F090F8FD
:1080C00000480047718B0108D06E0020084B1968EA
:1080D0000868203080F30988022080F31488BFF3F9
:1080E0006F8F3FBCAE4608BC04BC62B618470000A8
:1080F00078030020EFF3108072B6704780F3108889
:108100007047EFF309800E4B1A6820381060F0C0FA
:1081100044464D4656465F46F0C008B572B612F06A
:108120009FF862B60CBC116808681030F0C8A04611
:10813000A946B246BB4680F309882038F0C81847E4
:10814000780300200448804704480047FEE7FEE724
:10815000FEE7FEE7FEE7FEE701650108B9800008DB
:1081600030B50B46014600202022012409E00D46CF
:10817000D5409D4205D31D469540491B2546954057
:1081800040191546521E002DF1DC30BD70B500249B
:108190002546002801DA01244042002901DA0125A0
:1081A0004942FFF7DDFFAC4200D04042002C00D036
:1081B000494270BD10B5202A04DB0846203AD04061
:1081C000002110BD0B46D340D0402024A21A91407C
:1081D0000843194610BD00000048704798AD0108DB
:1081E00010B50446FFF7F8FF0068005DC007C00F38
:1081F00010BD03460B439B0703D009E008C9121FBB
:1082000008C0042AFAD203E00B780370401C491C12
:10821000521EF9D27047D2B201E00270401C491ED2
:10822000FBD270470022F6E710B513460A46044613
:108230001946FFF7F0FF204610BD30B505462A4627
:108240000B4610781C78521C5B1C002801D0A04201
:10825000F7D0002C03D0002802D06D1CEFE7284691
:1082600030BD10B5044605E00B780370401C002BB0
:1082700000D0491C521EF7D2204610BD421C017886
:10828000401C0029FBD1801A704710B5002200E085
:10829000521C835C8C5CA34201D1002BF8D1D8B274
:1082A000E1B2401A10BD10B5044600E0401C03784E
:1082B000002BFBD100E0401C521E04D30B78491C5C
:1082C0000370002BF7D100210170204610BD03463A
:1082D0000A780270401C491C002AF9D118467047E0
:1082E00030B505460020034600E05B1C934205D2F2
:1082F000EC5CC85C201A01D1002CF6D130BD000026
:108300000FB400B58DB009900B9010A9002000911A
:10831000C0430A9000200C9006480690064807903B
:108320006A4609A80F9900F023FE0DB008BC04B0FE
:1083300018470000918F0008B18F0008FFB5002793
:10834000FF4383B000205C6801909E681D46A969C8
:108350007F1C049888470090296A88470028F6D136
:108360000098401C0CD0032040028443002E19DDED
:10837000600614D500982B2809D02D280FD103E0D2
:108380000020C04307B0F0BD012080020443A9696A
:108390007F1C04988847761E0090002E02DD00980E
:1083A000302803D00598002825D035E00120400270
:1083B0000443A969761E7F1C049888470090002E0C
:1083C00003DD782805D0582803D00598002810D060
:1083D00022E00598002801D010281DD1012040027C
:1083E0008443A969761E7F1C04988847009010205A
:1083F00002E0082000E00A2005900DE0012149027A
:108400000C43059A0199761E514308180190A969F9
:108410007F1C049888470090002E05DD0599009880
:1084200000F090FD0028E9DAE96904988847A00582
:1084300002D40120C043A5E7E00722D1600611D590
:108440006005019800D5404229680A1D2A60096824
:10845000220501D5087014E0220701D5088010E03C
:1084600008600EE02868011D29600068210502D51A
:108470000199017005E02107019901D5018000E013
:10848000016038467EE70000FFB5087889B01546E0
:10849000FF2805D0491C2D2804D00022002407E025
:1084A00000240BE00122F9E70A235C430419491C6C
:1084B0000878FF28F8D1002A00D0644200200490F8
:1084C0002A7801462D2A01D02B2A0FD16D1C2D2A86
:1084D00002D00022049209E00122FBE700260A22D2
:1084E00033466D1C00F0CEFC381871412F78FF2FF9
:1084F000F4D10C9AA218069202460A4304D0FF2334
:10850000069A9133DA4205DA002109980A4606C034
:108510000DB0F0BD0024B74AB54D2646079200F0D5
:1085200031FE029006980391002801DA474200E0EC
:10853000074639050020AF4A001C514101910090C7
:1085400012E0F80707D022462B463046079900F084
:10855000E9FA0646079122462B461046194600F0D6
:10856000E1FA04460D467F10002FEAD10698019BE0
:108570000028009A0399029806DA00F03BFB324685
:10858000079B00F037FB05E000F0CCFA3246079B72
:1085900000F0C8FA049A002A02D00122D207514002
:1085A000099A03C2B4E7FFB591B0002009900025F5
:1085B000ED432E209E685C681F460190B9696D1CD2
:1085C000129888470090396A88470028F6D10098A9
:1085D000401C0AD00D20C0018443002E12DD0098FB
:1085E0002B2809D02D280DD103E00020C04315B061
:1085F000F0BD012080020443B9696D1C12988847C0
:10860000761E009003A9600501D52D2000E02B20E7
:108610006A461073491C0CA80F9102900AE0B969D0
:108620006D1C129888470090012040020443139863
:10863000761E0560002E02DD00983028EFD00199EB
:108640000098884246D18020044308E00998401EE3
:1086500009900120400204431399681C0860B9691D
:108660006D1C761E1298884700903028EED031E0BD
:108670000199884205D1200603D480200443761E48
:108680001EE000980EF05EFD002826D0012040027A
:10869000044307A90F980331761E88420BD2009835
:1086A0000F99303808700F98401C0F90200607D59E
:1086B0000998401E03E0200602D40998401C099046
:1086C000A00502D51399681C0860B9696D1C129841
:1086D00088470090002ECBDC59E0002E57DD009833
:1086E000652801D0452852D1A00550D503200002AD
:1086F0008443B9696D1C761E129888470090002E3D
:108700000CDD2B2804D02D2808D1FF200130044394
:10871000B9696D1C12988847761E0090E00501D556
:108720002D2100E02B21029801700298401C02903C
:10873000019025E00120400204430EA90298013176
:10874000761E88420ED20098029930380006000E3C
:10875000087003D10299019881420AD90298401CFD
:10876000029006E0E00501D5234801E0224840429E
:108770000990B9696D1C129888470090139805609C
:10878000002E04DD00980EF0DDFC0028D2D1F9693E
:10879000129888470F99FF200870029903AA087061
:1087A00000200A900B900CA90AA8099BFFF76CFE09
:1087B000A00502D40120C04319E72420044209D0B7
:1087C000E00713D138680B9A0A99031D3B600068D3
:1087D00006C00BE00B990A9800F0F4FA0146E00796
:1087E00004D13868021D3A60006801602846FEE640
:1087F000000014400000F03FF1D8FFFF70B50646BE
:108800000EF0D2FB046805460A220021304600F033
:10881000E1FB2C6070BDF8B502464A40D40F42001F
:108820004B0052085B089A4202D2024608461146A3
:108830004A0023D0C30D4A00DDB2120EAD1A202D1E
:1088400035DA49020126490AF6058A19002C00D0BA
:10885000524220214F1B1146B9402A411018C20D27
:108860009A4221D0002C17D0012D08DCDA05801A9D
:10887000D20F8019D207DBB200F0ECFBF8BDDA05AD
:10888000801A012340001B06C01880185A42801825
:10889000CA0F1043490007E04908C2071143DA052F
:1088A000801A80194008801800F0CCFBF8BD6100E8
:1088B0000122511A001BF7E70122D2075140AAE713
:1088C0000122D2075040A6E7024670B54A40D30FB6
:1088D000DB0740002DD04A002AD0010E140E000202
:1088E00012020919400A520A8418E5010446544349
:1088F000000A120A2E045043A4194219200CC54341
:10890000AA18120C0125AD03521C521912047F390A
:10891000240400D0521C104301D44000491EC2B2AE
:108920000C06C0092018401C4008802A02D003E031
:10893000002070BD40084000002900DA00201843E4
:1089400070BD70B502464A40D50F40004A00ED07A1
:1089500040085208002814D0002A12D0C40DD30DAC
:1089600041020120C0055202490A520AE41A0918BC
:1089700012187D34914201D3641C00E04900002CA0
:1089800001DA002070BD0023914201D3891A03430C
:10899000400849000028F7D100290AD0914202D1AD
:1089A0000121C90705E0914201D2012101E0012125
:1089B000C943E005C018401900F044FB70BD000039
:1089C000F0B507460846584087B0C00F04904800ED
:1089D0000E46590040084908BC1A884105D238465D
:1089E00031461E4617460B460246580040081043C3
:1089F0004CD0300D039040055900400D490D0590B5
:108A0000401A0290402872DA18030121000B090570
:108A10000843019004980092002805D00199524221
:108A20000020884100920190029840210A1A019981
:108A3000009800F064FA05460C466B4607CB00F040
:108A40006EFAC0197141039A0E0D0023D7175640D4
:108A50001A467A40164344D0049A002A2DD0029A2E
:108A6000012A039A15DC1205C01A91410126360528
:108A7000001C7141D20F059ED2070093019202960D
:108A80002A46234600F02CFB07B0F0BD384631469D
:108A9000FAE71605224A0F46B218C01AB74101215B
:108AA0000905001C4F4100187F41114618187941F3
:108AB000E20F10436D19644113E0E2076D0815439E
:108AC0006408C2071443039A01261205C01A914193
:108AD0003605001C7141CE07400830434908C018D4
:108AE00051412A46234600F0EEFACDE7FFE704980D
:108AF00001224000C117121A00238B41049831460D
:108B0000C417381AA141EEE730B40124E4076340EA
:108B100030BC55E730B40124E407614030BC4FE776
:108B20000000E0FFF0B51FB488B00B99099800244D
:108B300048400999C00F490049080991C0070B999D
:108B40000090490049080B9109990898A6460843E6
:108B50001CD00B990A98084318D0099801244000AA
:108B6000420D4800410D099824050003000B2043E5
:108B700009900B980003000B20430B9050181C49E0
:108B80004018002201901446104605E000200146DE
:108B90000DB0F0BD032801DA034600E003239C4634
:108BA000C11A0AAE0AE05F0008ADED5B4F00F75B4B
:108BB0007D430027AA187C41491C5B1E6145F2DDFC
:108BC000410004AB5A522104120C0A43240C401CED
:108BD0000828DFDB0198029000997046019100900F
:108BE000059B049A0799069800F07AFAD0E70000EE
:108BF0000DFCFFFFF0B50C465C4085B0E40FE407C8
:108C000003944C0000266408590094464908024623
:108C10000296224321D062460A431ED06200570DBD
:108C20004A000E032303550D012402462C49240556
:108C3000781B1B0B360B40182343264361460090DC
:108C40001C46501AB44103D30098401C009002E027
:108C5000921800985B41002803DA0020014605B015
:108C6000F0BD0020012109050746864611E0644653
:108C70001D46141BB54106D36546521BB3417446CD
:108C800007430C43A646CD074008490828439218DD
:108C90005B4105460D43EAD11046184313D06046A8
:108CA000194650407140084306D06046101AB3413F
:108CB00006D20122002306E000220123DB0702E0A6
:108CC0000122D2435310009874460105381C6141BB
:108CD000029C039D0019694100F0F5F9BFE700000F
:108CE000FD03000010B500229623114600F0B2F9F2
:108CF00010BDC20F410040020123400ADB05D2072C
:108D0000090EC0187F2901DA00207047962903DC7C
:108D10009623591AC84001E096398840002AF4D0B9
:108D200040427047410040020122400AD205090E2C
:108D300080187F2901DA00207047962903DC9622EB
:108D4000511AC8407047963988407047C20FD20701
:108D5000400040080BD0C10D0723DB01C9184002B9
:108D60000905400A1143C20840071143704700201B
:108D70000146704710B5002904DB0124E407404296
:108D80008C412146002B04DB1C460123DB075242A9
:108D9000A3418B4200D1824210BD000010B50029D2
:108DA00004DB0124E40740428C412146002B04DB14
:108DB0001C460123DB075242A341994200D1904255
:108DC00010BD0000CB0FDB07490010B54908024673
:108DD0000A4307D00A0D07240903E401090B121BFB
:108DE000002A01DC002010BDC900440F0C43C10063
:108DF000E018D205801800F025F910BD0122D20735
:108E0000002800DB101A002900DB511A814270474C
:108E10000122D207002800DB101A002900DB511ABA
:108E200088427047F0B51FB40646002082B0054660
:108E30004024019100901BE0019922460F463046E4
:108E4000FFF7B8F9049A059B801A994110D3104690
:108E50001946224600F053F8361A8F4101972246F0
:108E600001200021009F00F04AF838184D41009081
:108E70002046641E0028DFDC019B0098294632460C
:108E800007B0F0BDF0B51FB486B00020009001908F
:108E900002900698069980B204900798090C020483
:108EA0000014114307900027089D099806913E463B
:108EB0003C4603900398A9B20204000C0390049866
:108EC0002D0C154348430021224600F018F8C7191D
:108ED000714110340E46402CECDB3846029A00F00B
:108EE0000EF8009A019B8018009059410298019158
:108EF000103002904028CCDB00980BB0F0BD10B5CC
:108F0000202A04DB0146203A9140002010BD914008
:108F100020239C1A0346E3401943904010BD10B52E
:108F2000202A06DBCB170846203A1041C1170B4315
:108F300006E00B461341D0402024A21A914008437A
:108F4000194610BD3A2800D23038202302469A43F1
:108F5000412A01D310463738884201D30020C0434C
:108F60007047000002681378511801601846704776
:108F700010B5D160044951610449116200211161A9
:108F8000114600F03FF910BD658F0008E18100082F
:108F90004268002A08D001680B78491C002B03D0D6
:108FA000521E06C0184670470121C160881E7047D6
:108FB0004268002A0BD0C3680168002B07D1836880
:108FC0008B4204D0491E521C06C00020704700206E
:108FD000C0437047F7B5009C0F4600262578641CF7
:108FE000002D05D0FFF7F8F80068405DC007F5D107
:108FF0002B2D02D02D2D18D0641E39462046029A02
:1090000000F09CFA002F04D03968A14201D10099E8
:1090100039607105022400290BDA4042002803DD83
:109020000DF0C2FF0460A007FEBD012080020643D0
:10903000E3E70028F8DA0DF0B7FF04600048FEBD52
:10904000FFFFFF7F002904DA401C490001D14008DE
:109050004000704770B40024050C05D110240004B2
:1090600002D1002921D01124050E01D100020834BB
:10907000050F01D10001241D850F01D18000A41C22
:10908000002801DB4000641C002908D020252E1B8D
:109090000D46F540A14000D00121294308430106B7
:1090A0001B1B000ADB1D02D5002070BC7047DB05CE
:1090B000181880180029F8DA401C4900F5D170BC56
:1090C00040084000704710B5002B08DA0024401C0F
:1090D000614192185B411A4301D14008400010BD24
:1090E000F0B51FB482B005460C0003D008460DF061
:1090F00035FF02E00DF032FF20300246009021469D
:109100002846FFF7FCFE049B059A04460F461843C9
:109110001143084314D0184610431BD00098402137
:109120000A1A18460599FFF745F805460E46009AB3
:1091300005990498FFF7E3FE084305D0012004E0F9
:109140002046394607B0F0BD0020C11705430E4345
:109150002C43374300990E986305401A7905E40AB9
:1091600000220C43FD0A0A3002D500200146E9E73F
:109170000105101969410C9C0D9D00196941FFF70B
:10918000A2FFDFE70EB5054A0292002200921346C5
:109190000192FFF7A5FF03B000BD000033040000FB
:1091A0004A0009030123090B1B0519430A4B10B59B
:1091B000520D9A4202DA0020014610BD064B3433AC
:1091C0009A4203DC9A1AFEF7F5FF10BD034BD21842
:1091D000FFF795FE10BD0000FF030000CDFBFFFF71
:1091E000064C0125064E05E0E36807CC2B430C3CFA
:1091F00098471034B442F7D3FEF762FF7CB0010801
:109200009CB00108F3B58DB000200A9001200B90AE
:10921000002608460C300C46099062690121099825
:109220009047051E2ED0252D2DD0216A8847002875
:1092300018D06269012109989047216A884700285F
:10924000F7D1411E62690998904700E0761CA16938
:109250000D988847216A88470028F7D1E1690D9861
:109260008847DAE7A1690D9888470746A84201D1E7
:10927000761CD2E7E1690D9888477F1C02D10A98D5
:10928000002877D049E1002762693D4639460998B0
:1092900090472A280CD1626901210998904701253D
:1092A00006E00A214F433F18303FEBD4102005431E
:1092B0006269012109989047014630390A2903D291
:1092C0009B498F42DEDCECE7E90600D4994F6C281D
:1092D0000AD04C2810D0682824D06A282ED07428B0
:1092E0000CD07A280AD00DE06269012109989047D4
:1092F0006C2823D004211CE0202005436269012151
:1093000009989047A760656065284FD026DC5828EB
:1093100039D01ADC452849D012DC252834D0412820
:10932000B0D143E06269012109989047682802D0D2
:1093300008210D43E6E70120C002DEE70220DCE75A
:10934000462833D047282CD130E05B2870D06128E4
:109350002CD063286CD0642823D161E06F284FD0D3
:1093600009DC662822D0672820D0692826D06E28FC
:1093700017D12EE0CDE070284DD073286FD075281E
:109380004ED078280DD154E0A1690D988847054644
:10939000252800D16CE7E1690D9888476D1C00D144
:1093A0006DE7BAE00A224CE00A2252E0012023468F
:1093B0006A46C0430D99FFF7F6F8A3E0284640211E
:1093C00008436060A807234601D5002239E0002247
:1093D0003FE0E80700D020E72068011D2160006819
:1093E000290501D5067018E7290701D5068014E77D
:1093F000A90703D5F117066041600EE706600CE788
:109400002846402108436060A807234601D508226A
:1094100017E008221DE0484928460840606016E031
:109420002846402108436060A8072346BCD5B9E719
:1094300015E02846402108436060A80707D5234669
:1094400010220120C0430D99C046C0465AE0234671
:1094500010220120C0430D99FEF770FF52E0002159
:109460000C910B460091632802D05B2807D043E0A3
:10947000E80601D40120A060012000903CE0626970
:109480000121099890475E2805D101200C900146E2
:109490006269099890472169002906D10B4601AA03
:1094A0008F00491CD3510829FADB002835D02169E7
:1094B00000290ED1C117C90E09184A11930001AA3B
:1094C0009A1849094901411A012013688840034349
:1094D000136062690121099890475D28E5D10C98D5
:1094E000002808D0002001AB81005A58401CD2430C
:1094F0005A500828F8DB01AB01202246C0430D99E1
:10950000C046C04600280ADA401C06D10B98002845
:1095100003D00020C0430FB0F0BD0A98FBE7E90775
:1095200002D10A99491C0A91361800200B9074E662
:10953000CCCCCC0CFFFFFF7FF1F7FFFFF7B582B07B
:10954000029C00272078641C15460197302802D021
:10955000002D15D015E020780127641C782804D050
:10956000582802D0002D09D00BE0002D01D0102D7D
:1095700007D1002710252078641C02E0082500E0B0
:109580000A250026009610E0009901276943081873
:10959000020C294680B2714300908E18380486422E
:1095A00001D3012001902078641C2946FFF7CAFCF2
:1095B0000028E9DA0398002805D0002F01D0641EA6
:1095C00000E0029C04600198002806D00DF0ECFC3D
:1095D00002210160C81E05B0F0BD009930040843A7
:1095E000F9E770B58C180578401C6B075B0F01D14B
:1095F0000378401C2A1106D10278401C03E006784B
:109600000E70401C491C5B1EF9D12B0705D40023AA
:10961000521E0DD40B70491CFAE70378401CCB1A7C
:10962000921C03E01D780D70491C5B1C521EF9D57D
:10963000A142D8D3002070BD10B5024801F06EFDE4
:1096400010BD0000BC2F002070B504460025206826
:109650008068042108408008002829D0206880689C
:10966000084000280BD020688068022108400028AC
:1096700005D120688068102108432168886002F0C5
:109680003FFA05460EE002F03BFA401B022809D9DA
:10969000606C102108436064A06C01210843A06441
:1096A000012070BD20688068042108400028EAD1AC
:1096B0000020F6E770B505466C6A606C50210840E2
:1096C000002835D1606C012149020843606420689C
:1096D000C068032189020840002825D1206A00289B
:1096E00022D1206800680821084008281CD1206881
:1096F000806804210840800800280DD12068406857
:109700000C21884321684860606CFF210131884347
:1097100001210843606407E0606C20210843606415
:10972000A06C01210843A064204601F00BFA03E07D
:10973000E06B016B2846884770BD70B505466C6AC2
:10974000606C402108436064A06C04210843A0645D
:10975000204601F0E2FC70BD70B50446656A2846FB
:1097600001F0DAFC70BD70B5044600252068806801
:109770008007800F01280ED120680068C007C00F45
:10978000002806D12068C0680121C903084088422A
:1097900001D1012000E00020002837D02068806837
:1097A00005210840012800D100E0002000280AD04F
:1097B00000BF206880680221084321688860032078
:1097C0002168086009E0606C102108436064A06CA7
:1097D00001210843A064012070BD02F091F9054603
:1097E0000EE002F08DF9401B022809D9606C1021AF
:1097F00008436064A06C01210843A0640120EBE7EA
:1098000020688068C007C00F0028EAD10020E3E785
:1098100038B5044600250020009020688068800745
:10982000800F01280ED120680068C007C00F0028F3
:1098300006D12068C0680121C9030840884201D1CF
:10984000012000E00020002843D1206880682249E0
:109850000840002801D1012000E00020002809D1A3
:10986000606C102108436064A06C01210843A0646F
:10987000012038BD20688068012108432168886084
:10988000164917480068FEF76BFC009002E000984C
:10989000401E009000980028F9D102F031F90546E9
:1098A0000EE002F02DF9401B022809D9606C10214E
:1098B00008436064A06C01210843A0640120D8E73C
:1098C00020680068C007C00F0121484048400028B8
:1098D000E7D00020CDE700001700008040420F00D5
:1098E0005803002070B50646054C06A12046FEF739
:1098F000A4FC0546002D01D0012070BD0020FCE72E
:10990000350400204F4B000070B506460F4D10A1E6
:109910002846FEF792FC0446002C14D00DA12846E0
:10992000FEF78BFC0446002C0DD00BA12846FEF759
:1099300084FC002807D109A12846FEF77EFC0028F8
:1099400001D1012070BD0020FCE70000350400209B
:109950004F4B00004353510039390000302C300088
:1099600070B506460A4D0BA12846FEF766FC044674
:10997000002C01D0012070BD07A12846FEF75DFC38
:109980000446002C01D00120F5E70020F3E7000099
:10999000350400204F4B00004552524F520000004A
:1099A00070B506460A4D0BA12846FEF746FC044654
:1099B000002C01D0012070BD07A12846FEF73DFC18
:1099C0000446002C01D00120F5E70020F3E7000059
:1099D000350400204F4B00004552524F520000000A
:1099E00070B506460A4D0BA12846FEF726FC044634
:1099F000002C01D0012070BD08A12846FEF71DFCF7
:109A00000446002C01D00120F5E70020F3E7000018
:109A100035040020434F4E4E454354004552524FAB
:109A20005200000070B506460A4D0BA12846FEF70D
:109A300004FC0446002C01D0012070BD07A128467B
:109A4000FEF7FBFB0446002C01D00120F5E70020C7
:109A5000F3E70000350400204F4B00004552524F01
:109A60005200000070B506460A4D0BA12846FEF7CD
:109A7000E4FB0446002C01D0012070BD08A128465B
:109A8000FEF7DBFB0446002C01D00120F5E70020A7
:109A9000F3E7000035040020434F4E4E4543540089
:109AA0004552524F5200000070B506460A4D0BA1B8
:109AB0002846FEF7C2FB0446002C01D0012070BDF1
:109AC00007A12846FEF7B9FB0446002C01D001206F
:109AD000F5E70020F3E70000350400204F4B0000BD
:109AE0004552524F5200000070B506460A4C0BA179
:109AF0002046FEF7A2FB0546002D03D1084800785A
:109B00000A2801D1012070BD05480078401C044995
:109B100008700020F7E70000350400204F4B0000DC
:109B200051030020014601207047000070B5064631
:109B30000A4D0BA12846FEF780FB0446002C01D0FD
:109B4000012070BD07A12846FEF777FB0446002CD4
:109B500001D00120F5E70020F3E7000035040020E4
:109B60004F4B00004552524F5200000070B5064660
:109B7000054C06A12046FEF760FB0546002D01D0EE
:109B8000012070BD0020FCE7350400204F4B000091
:109B900070B506460A4D0BA12846FEF74EFB04465B
:109BA000002C01D0012070BD07A12846FEF745FB1F
:109BB0000446002C01D00120F5E70020F3E7000067
:109BC000350400204F4B00004552524F5200000018
:109BD00001460120704710B50321142007F0F6FE5E
:109BE00010BD000010B503220021012010F0FAFB87
:109BF0000449086008460068002802D102A00DF060
:109C000089F910BD4C03002053656D6170686F7257
:109C100065206372656174206661696C6564210DFD
:109C20000A00000010B500220121084610F0DAFBFE
:109C30000449086008460068002802D102A00DF01F
:109C400069F910BD48030020637265617465206680
:109C500061696C65640D0A0008B5C022104988036B
:109C6000FEF7C7FA00BF0F488069012108430D497C
:109C7000886108468069C007C00F009000BF00BF20
:109C800000BF09480068800880000749086008464E
:109C90000068032108430449086000BF08BD0000B4
:109CA000008000080010024000000140F7B50746A0
:109CB00015460421052000F02AF880210A2007F02B
:109CC00085FE002405E0395D09200DF003F9601CD4
:109CD000C4B201988442F6DB032101200DF0FAF8AA
:109CE000FF2400BF052006F0C7FC0646601EC4B274
:109CF000002C03D0042030400028F3D0222006F0AE
:109D0000BBFC2870212006F0B7FC6870FEBD70B562
:109D100005460C46284606F0AFFC06463046A043F2
:109D2000014628460DF0D6F870BD000070B5054616
:109D30000E4618A11848FEF780FA0446002C06D0FB
:109D400016481749886017481749486105E01748C1
:109D500013498860164814494861002015498864F1
:109D600011490860486088601348086100210A486A
:109D70008030416101201149087000200A49C86102
:109D8000086201200E4908700E4908700EA00DF0FF
:109D9000C1F870BD4B450000D83000200000504194
:109DA0009031002000006943CC3100200000704158
:109DB00000007A45F03100209A9921401F020020CE
:109DC00020020020210200204F4B4F4B4F4B0D0A29
:109DD0000000000010B5024801F05CFC10BD00005E
:109DE0000830002010B5024801F054FC10BD0000FE
:109DF0005835002010B50446054A2168881A1421F8
:109E0000FEF7AEF98000206401480838E06310BD19
:109E10000800024030B50124056CAC40C56B6C6095
:109E2000046863604468102C04D10468A26004686C
:109E3000E16003E00468A1600468E26030BD0000F6
:109E40007CB505460C462168881C01AA08A1FEF7CE
:109E500057FA2168084608306A4605A1FEF750FA0D
:109E60000199009808F0EAF803A00DF053F87CBDC2
:109E700025366C64000000004F4B4F4B4F4B0D0AD2
:109E80000000000010B5012001F022FD022001F0C9
:109E90001FFD10BD10B5042001F01AFD10BD10B556
:109EA0000120000301F014FD10BD000070B505464F
:109EB0000C46074A07A12068FEF722FA064A05A1C8
:109EC0006068FEF71DFA01200449087070BD0000AB
:109ED000D001002025640000D4010020D80100201A
:109EE00070B504460D4603484268016802A00DF0B3
:109EF00011F870BD8832002046696E644C6F674966
:109F00006E6465782025642025640D0A0000000039
:109F100030B591B00446224608A101A80DF00AF818
:109F20000DA301227D21090101A808F0F1FA0546DF
:109F3000012D01D111B030BD0020FBE741542B436E
:109F40004744434F4E543D312C224950222C222568
:109F500073220D0A000000004F4B000010B50C48A2
:109F60000079022807D10BA301220D490DA008F0AA
:109F7000CFFA044606E007A3012209490DA008F024
:109F8000C7FA0446012C01D1012010BD0020FCE7D6
:109F90004C110020434C4F5345204F4B0000000014
:109FA000B80B000041542B5149434C4F53450D0A07
:109FB0000000000041542B434950434C4F53453D52
:109FC000310D0A0000B591B011480079022807D17F
:109FD000104B1A46143A10A101A80CF0ABFF06E092
:109FE0000C4B1A46143A13A101A80CF0A3FF00BFB2
:109FF00018A01CA302227D214901009001A808F0AD
:10A0000087FA002802D0012011B000BD0020FBE734
:10A010004C1100206030002041542B51494F5045D5
:10A020004E3D22544350222C222573222C2225738C
:10A03000220D0A0041542B43495053544152543D80
:10A0400022544350222C222573222C222573220DC8
:10A050000A000000414C524541445920434F4E4EA6
:10A06000454354000D0A434F4E4E454354204F4B39
:10A070000D0A000038B50E480079022809D10DA05C
:10A080000FA302221249009012A008F041FA0446E0
:10A0900008E008A013A302220D49009014A008F0C4
:10A0A00037FA0446012C01D1012038BD0020FCE71D
:10A0B0004C1100200D0A4552524F520D0A0000006B
:10A0C0000D0A4445414354204F4B0D0A0000000047
:10A0D0008813000041542B514944454143540D0A13
:10A0E000000000000D0A53485554204F4B0D0A0044
:10A0F00041542B434950534855540D0A0000000069
:10A10000F8B507460D4616461948007902280AD1C7
:10A1100018A01BA302227D21C90000901AA008F0FC
:10A12000F7F9044609E013A015A302227D21C90016
:10A13000009019A008F0ECF90446012C15D1002F6D
:10A1400003D018493846FEF7C2F8002D04D015494F
:10A1500011312846FEF7BBF8002E04D011492231F8
:10A160003046FEF7B4F80120F8BD0020FCE70000FF
:10A170004C1100200D0A4552524F520D0A000000AA
:10A180000D0A4F4B0D0A000041542B5149524547CF
:10A190004150503F0D0A000041542B435354543F4B
:10A1A0000D0A0000F50F002038B50546104800796B
:10A1B00002280AD10FA012A302227D21C90000901B
:10A1C00011A008F0A5F9044609E00AA00CA3022298
:10A1D0007D21C900009010A008F09AF90446002DD6
:10A1E00005D0012C03D10F492846FEF770F838BD81
:10A1F0004C1100200D0A4552524F520D0A0000002A
:10A200000D0A4F4B0D0A000041542B51494C4F434E
:10A2100049500D0A0000000041542B434946535257
:10A220000D0A000028100020F0B591B005460F4639
:10A23000144619480079022807D13B462A4617A13F
:10A2400001A800940CF076FE06E03B462A461BA1CE
:10A2500001A800940CF06EFE1FA022A302227D2113
:10A26000C900009001A808F053F90646012E10D14C
:10A2700029461E48FEF72BF839461C481130FEF7D8
:10A2800026F8214619482230FEF721F8012011B0A6
:10A29000F0BD0020FBE700004C11002041542B5181
:10A2A000495245474150503D222573222C222573A7
:10A2B000222C222573220D0A0000000041542B435A
:10A2C0005354543D222573222C222573222C2225FF
:10A2D00073220D0A000000000D0A4552524F520D24
:10A2E0000A0000000D0A4F4B0D0A0000F50F002078
:10A2F00030B591B00446224608A101A80CF01AFE20
:10A300000AA301227D21090101A808F001F90546EF
:10A31000012D01D111B030BD0020FBE741542B438A
:10A3200050494E3D222573220D0A00000D0A4F4B65
:10A330000D0A000010B50D480079022808D10CA3C1
:10A3400001227D2109010CA008F0E2F8044607E093
:10A3500007A301227D2109010BA008F0D9F80446CA
:10A36000012C01D1012010BD0020FCE74C11002080
:10A370000D0A4F4B0D0A000041542B5149484541ED
:10A38000443D310D0A00000041542B4349504845DB
:10A3900041443D310D0A000070B5054606A3012277
:10A3A0007D21490106A008F0B3F80446012C00D134
:10A3B00070BD0020FCE700000D0A4F4B0D0A0000A5
:10A3C00041542B43474154543D310D0A00000000D5
:10A3D00038B50E480079022809D10DA00FA302223A
:10A3E0001049009010A008F093F8044608E008A077
:10A3F0000AA302220B4900900EA008F089F8044637
:10A40000012C01D1012038BD0020FCE74C110020B7
:10A410000D0A4552524F520D0A0000000D0A4F4BD3
:10A420000D0A00008813000041542B514941435448
:10A430000D0A000041542B43494943520D0A0000C4
:10A4400038B5054600241A20009000BF1548007951
:10A45000022806D114A30122144915A008F058F8C7
:10A4600005E011A30122114914A008F051F80028B9
:10A4700008DD284608F00AF90121684608F0CAF804
:10A48000012038BD012C06DA601CC4B27D20C0005A
:10A490000EF08CFC01E00020F3E764200EF086FC57
:10A4A000D4E700004C1100203E000000881300009B
:10A4B00041542B514953454E440D0A0041542B43FE
:10A4C000495053454E440D0A0000000070B5064641
:10A4D0000C46064D2A4606A12068FDF711FF012013
:10A4E0000449087004A00CF015FD70BD98310020DF
:10A4F00025660000200200204F4B4F4B4F4B0D0AAA
:10A500000000000030B587B004460D46002202A9C5
:10A51000124802F0DDF9002201A9104802F0AAF960
:10A520006846017A0E4841436846407A64225043A7
:10A5300009186846807A081820606846C0797D212D
:10A5400009014118064841436846407950430918BB
:10A55000684680790818286007B030BD7433002041
:10A560001027000030B593B0044677A279A10EA859
:10A570000CF0E0FC78A277A109A80CF0DBFC032228
:10A580000EA904A80EF0DCFB05462A4671A104A81A
:10A590000CF0D0FC73A104A8FDF777FE002803D1CE
:10A5A00001206946C88070E06FA104A8FDF76DFE28
:10A5B000002803D102206946C88066E06BA104A888
:10A5C000FDF763FE002803D103206946C8805CE0E4
:10A5D00067A104A8FDF759FE002803D104206946AD
:10A5E000C88052E063A104A8FDF74FFE002803D104
:10A5F00005206946C88048E05FA104A8FDF745FE34
:10A60000002803D106206946C8803EE05BA104A86B
:10A61000FDF73BFE002803D107206946C88034E0DF
:10A6200057A104A8FDF731FE002803D10820694690
:10A63000C8802AE053A104A8FDF727FE002803D113
:10A6400009206946C88020E04FA104A8FDF71DFE3F
:10A65000002803D10A206946C88016E04BA104A84F
:10A66000FDF713FE002803D10B206946C8800CE0DB
:10A6700047A104A8FDF709FE002803D10C20694674
:10A68000C88002E001206946C88002220FA904A800
:10A690000EF056FB05462A462EA104A80CF04AFCF3
:10A6A00004A8FEF7ABF881B26846018104220FA925
:10A6B000033104A80EF044FB05462A4625A104A850
:10A6C0000CF038FC04A8FEF799F881B26846818145
:10A6D000022209A904A80EF033FB05462A461DA153
:10A6E00004A80CF027FC04A8FEF788F881B268469D
:10A6F0000180022209A9033104A80EF021FB0546BE
:10A700002A4614A104A80CF015FC04A8FEF776F85C
:10A7100081B26846418002220AA9023104A80EF0E3
:10A720000FFB05462A460BA104A80CF003FC04A865
:10A73000FEF764F881B2684681800E2269462046A1
:10A74000FDF757FD13B030BD41756720323520321B
:10A75000303230002573000031373A32363A303625
:10A76000000000004A616E00466562004D617200A3
:10A77000417072004D6179004A756E004A756C0037
:10A7800041756700536570004F6374004E6F76002B
:10A790004465630010B58AB000200890099008ACA9
:10A7A000089009906846FFF7DDFE68460FC80793DA
:10A7B00004AB07C36846C28A0AA108A80CF0BAFB1A
:10A7C0006846FFF7CFFE68460FC8079304AB07C380
:10A7D0006846028B03A122300CF0ACFB20460AB085
:10A7E00010BD0000253032640000000017B585B0B0
:10A7F00001A96846FFF786FE35490198FDF7C6FCBA
:10A80000049064210198FDF7C1FC04466421FDF722
:10A81000BDFC6846017364210198FDF7B7FC6846EA
:10A82000C1722B490098FDF7B1FCC1B26846817234
:10A8300064210098FDF7AAFC04466421FDF7A6FCFC
:10A840006846417264210098FDF7A0FC68460172D9
:10A85000817D807A81421CDC6846817AE12000019A
:10A8600041436846407A3C22504309186846007AC2
:10A870000A186846817DE120000141436846407D19
:10A880003C23584309186846007D0818101A08B080
:10A8900010BD6846817AE120000141436846407A54
:10A8A0003C22504309186846007A081809494218A2
:10A8B0006846817DE120000141436846407D3C239C
:10A8C000584309186846007D0818101ADFE7000091
:10A8D0001027000080510100F8B50446002500262D
:10A8E000002700BF4020005D012801D10220F8BDF3
:10A8F00001214020015500BF206880688007800F3B
:10A9000001280CD1206800680840002805D1206883
:10A91000C068C9030840884201D1012000E000203E
:10A9200000283FD1606CFF21013188430221084398
:10A9300060642068C0688707BF0F2068C06880080F
:10A9400080002168C860206880680121C907084329
:10A950002168886001F0D4F8064611E001F0D0F8D3
:10A96000801B02280CD9606C022188431021084307
:10A97000606400BF00214020015500BF0120B6E700
:10A9800020688068C00FC0070028E7D12068C06831
:10A9900038432168C860606C022188430121084364
:10A9A000606404E0606C202108436064012500BFFE
:10A9B00000214020015500BF284698E7F8B504461D
:10A9C0000D4600260020009001210907A06B884257
:10A9D00015D0A06B012812D0A06B02280FD0A06B5D
:10A9E00003280CD0A06B042809D0A06B052806D042
:10A9F000A06B062803D0A06B072800D000BF00BFC3
:10AA00004020005D012801D10220F8BD0121402035
:10AA1000015500BF20688068042108408008002894
:10AA20007BD14449686888425BD02068806A2A7874
:10AA30000121914008432168886201210907A06B28
:10AA4000884229D0A06B012826D0A06B022823D0F1
:10AA5000A06B032820D0A06B04281DD0A06B052874
:10AA60001AD0A06B062817D0A06B072814D0A868AE
:10AA7000216849694907490F88420DD0206840691B
:10AA8000C008C0002168486120684069297A4907E8
:10AA9000490F0843216848612868102802D02868B7
:10AAA00011283FD1244880682968102901D1C904A0
:10AAB00001E00121890508431F49886028681028A2
:10AAC00030D11E491E480068FDF74AFB0A21484361
:10AAD000009002E00098401E009000980028F9D1F4
:10AAE00020E02068806A2A7801219140884321680B
:10AAF00088622868102802D02868112812D10E48D0
:10AB000080682968102902D1C90402E005E001210A
:10AB1000890588430849886004E0606C2021084367
:10AB20006064012600BF00214020015500BF30466F
:10AB30006BE70000011000000027014040420F00B9
:10AB400058030020F1B586B0069800F017FD0026E6
:10AB5000FE48007800287DD1FD4800780028FAD111
:10AB6000FC4800780028F6D1FB4800780028F2D194
:10AB7000FA480078012855D1F948007803282ED1E9
:10AB8000F8490868FEF7AEF88B21C9050390FDF778
:10AB9000D8FE0746FEF7DAF8F34AF44B0591049025
:10ABA000FDF7C0FF0446FEF70DF9F1490860F1A179
:10ABB000F148FDF76AFB00280AD1ED480068EF492B
:10ABC0000860EF48EF4908600020EF49086006E0A0
:10ABD000E7480068ED4908600020ED490860E0485A
:10ABE00000780128C7D1DF490868FEF77BF88B2180
:10ABF000C9050390FDF7A5FE0746FEF7A7F8DA4A58
:10AC0000DA4B05910490FDF78DFF0446FEF7DAF864
:10AC1000D7490860DFA1D848FDF737FB002802D1EB
:10AC2000DD49086067E1DD480078002807D0DB488F
:10AC300000780128F6D1DA4800780328F2D1CDA1B6
:10AC4000D848FDF722FB002873D1C9480068FEF7F9
:10AC50007DF800E0D2E10446D34AD44BFEF79EF8DB
:10AC600068D27F21C905C2480068FEF7C7F861D8DD
:10AC7000BF480068FEF76AF80446CD4ACD4BFEF7A0
:10AC80008DF815D2BA480068FEF760F8CA4ACB4B77
:10AC900003910290FDF746FFC94ACA4B0591049003
:10ACA000FDF732FF0446FEF78DF8BB49086014E05B
:10ACB000AF480068FEF74AF8C34AC44B03910290BC
:10ACC000FDF730FF0446C24AC24BFDF71DFF059158
:10ACD0000490FEF777F8B04908600021AE4800689C
:10ACE000FEF796F89ED2BC49AB480068FEF786F89E
:10ACF00098D2AA48007801281DD1B848C168A64852
:10AD00000068FDF7E1FD0190FEF720F804460022FF
:10AD1000B34BFDF76FFF0022B14B03910290FDF79B
:10AD200001FF05910490FEF74DF807460BF018FB64
:10AD30001CE036E01EE0A948C16897480068FDF7AE
:10AD4000C3FD0190FEF702F80022A54B039102908B
:10AD5000FDF750FF0022A34B05910490FDF7E2FEA2
:10AD60000446FEF72FF807460BF0FAFA0020864952
:10AD70000860C0E07F21C9057D480068FEF748F8FB
:10AD800006D2142080490860002083490860B2E0A0
:10AD90007D480068401C7C49086000207E490860AE
:10ADA000A9E073480068FDF7D1FF04466E4A52429D
:10ADB0008D4BFDF7F3FF7DD2012189076C480068B8
:10ADC000FEF71CF876D8894908687F21C905FDF788
:10ADD00073FD0746FDF7BAFF0446854A854BFDF72C
:10ADE000C9FF23D281494868FDF7B0FF0446804A75
:10ADF000804BFDF7BFFF19D27849C868FDF7A6FF61
:10AE0000039102905A480068FDF7A0FF019100905D
:10AE10000DF0DCFC0446039B029AFDF783FE0591CE
:10AE20000490FDF7CFFF5C4908600DE06F490868AA
:10AE30004F490968FDF748FD04466C4841682046C3
:10AE4000FDF7E9FC544908605448007801281BD1FB
:10AE50006248C16850480068FDF736FD0190FDF773
:10AE600075FF00225E4B03910290FDF7C3FE0022A6
:10AE70005B4B05910490FDF755FE0446FDF7A2FFDC
:10AE800007460BF06DFA1CE05448C1684248006860
:10AE9000FDF71AFD0190FDF759FF04460022504BC3
:10AEA000FDF7A8FE00224F4B03910290FDF73AFEFA
:10AEB000059100E009E00490FDF784FF07460BF0E0
:10AEC0004FFA00203049086015E001218907284821
:10AED0000068FDF79DFF06D214202B490860002072
:10AEE0002D49086007E028480068401C2649086092
:10AEF0000020294908604048007801287ED13B495C
:10AF000008687F21C905FDF7D7FC0746FDF71EFF3E
:10AF10000446374A374BFDF72DFF70D23349486856
:10AF2000FDF714FF0446324A324BFDF723FF78D277
:10AF30000C494868FDF7D6FE8B21C9050190FDF745
:10AF400000FD0746FDF702FF044659E051010020CD
:10AF50005201002053010020600200209A010020CD
:10AF60001C020020F42E00206666666666660A40B3
:10AF70009C01002031000000A2310020AC01002023
:10AF80004C374940B001002058020020A4010020A5
:10AF9000A801002030000000A001002030020020A5
:10AFA000900100208C31002021B0726891EDE03FCB
:10AFB00048E17A14AE47E13F2506819543034B40B3
:10AFC00024287E8CB99B3B40462575029AD041408F
:10AFD0001361C3D32B3532400000A041CC31002097
:10AFE00000004E40000008409999E13F34020020E3
:10AFF000314514EEF032AE3E990100205FE010E0E2
:10B000003C4A3D4BFDF78EFD002201239B07039137
:10B010000290FDF787FD05910490FDF7D3FE0646EB
:10B0200041E036494868FDF75DFE04903448016808
:10B030000498FDF749FC0746314841683846FDF75A
:10B04000EAFB0590FDF782FE04462A4A52422D4B48
:10B05000FDF790FE16D229494868FDF743FE0746E2
:10B06000274801683846FDF72FFC0546244841680B
:10B070002846FDF7D0FB044601218907FDF724FC93
:10B08000064610E01D494868FDF72CFE05461C48A1
:10B0900001682846FDF718FC044619484168204617
:10B0A000FDF7B9FB06463046FDF750FE0446114A4F
:10B0B000114BFDF773FE01D21348066000261348BA
:10B0C0000078012810D112480078032805DA1048CA
:10B0D0000078401C0E49087009E000200C490870F7
:10B0E00001200C49087002E001200A49087007B0ED
:10B0F000F0BD00006666666666660A40F42E0020B3
:10B10000340200209999054090310020300200203F
:10B11000900100209B0100207047704710B5044645
:10B120002068006804210840042804D12068406891
:10B13000084004280AD02068006808210840082830
:10B1400040D120684068084008283BD1606C10213D
:10B150000840002803D1606C4901084360642068FE
:10B16000C068032189020840002825D1206A0028F0
:10B1700022D1206800680821084008281CD12068D6
:10B18000806804210840800800280DD120684068AC
:10B190000C21884321684860606CFF21013188439D
:10B1A00001210843606407E0606C2021084360646B
:10B1B000A06C01210843A0642046FFF7C3FC0C20CB
:10B1C00021680860206800688021084080280ED12E
:10B1D000206840680840802809D1606C4902084313
:10B1E0006064204600F006F980202168086020682D
:10B1F00000681021084010281AD1206840680840D3
:10B20000102815D1606B012805D02068C068C007E0
:10B21000C00F002809D0A06C02210843A0641020B0
:10B22000216808602046FFF778FF10202168086039
:10B2300010BD000070B5044600260025002C01D189
:10B24000012070BD606C002806D1A0640021402060
:10B250000155204600F0D0F8606C1021084000280D
:10B260007ED1002EFCD1206880680421084080082F
:10B270000028F5D1606C890188430221084360648D
:10B28000206880688007800F01280DD12068006841
:10B29000C007C00F002805D12068C0688903084096
:10B2A000884201D1012000E0002000280FD1206851
:10B2B000C06818218843A16808432168C8602068D5
:10B2C000006980008008616808432168086120687F
:10B2D000C068464908402168C860A0698003E169E8
:10B2E000C9030843216A49030843616B012902D05D
:10B2F0000121090300E000210843E16808432169B6
:10B30000022901D1042100E000210843216B4900FA
:10B3100008430543606A01280ED1206A002803D142
:10B3200001200004054307E0606C202108436064AD
:10B33000A06C01210843A064FF21C231A06A8842A9
:10B3400003D0E16AA06A084305432068C068284327
:10B350002168C86001210907A06B884216D000E06F
:10B360003DE0A06B012811D0A06B02280ED0A06B8D
:10B3700003280BD0A06B042808D0A06B052805D0AB
:10B38000A06B062802D0A06B07280DD12068406969
:10B39000C008C0002168486120684069218F4907C2
:10B3A000490F0843216848612068C0681049084077
:10B3B000A84208D10020A064606C022188430121CA
:10B3C0000843606410E0606C022188431021084348
:10B3D0006064A06C01210843A064012604E0606C55
:10B3E000102108436064012630462AE71902FEFF57
:10B3F000E7FF3F837047000010B586B00446274939
:10B400002068884248D100BF254880694915084313
:10B41000234988610846806949150840009000BFAB
:10B4200000BFA0200190032002900020039001A9FA
:10B430000920C00600F05CFA1A481B490860002089
:10B4400048600021184881608021C1608900016145
:10B4500089004161202181610021C16100F092F9E0
:10B46000002803D08E2111A00BF052FD00BF0D4823
:10B470007830806A000900010A49783188620846FC
:10B48000806A0121084307497831886200BF00BF04
:10B490000548E063446200BF06B010BD00240140CF
:10B4A0000010024008000240083000202E2E2F53CA
:10B4B00072632F6164632E6300000000F8B50446D8
:10B4C0000D46164600272068806804210840800841
:10B4D000002848D100BF4020005D012801D1022092
:10B4E000F8BD01214020015500BFE069012803D0CB
:10B4F0002046FEF78DF90746002F35D1606C1B49B9
:10B500000840FF210131084360640020A06400BFAF
:10B5100000214020015500BF1548E16B88621548A5
:10B52000E16BC8621448E16B08631C202168086065
:10B530002068406810210843216848602068C0687E
:10B54000012108432168C860226811464031334612
:10B550002A46E06B00F048F920688068042108431F
:10B560002168886000E002273846B9E7FEF1FFFF56
:10B57000B5960008599700083B97000870B5044637
:10B58000002500BF4020005D012801D1022070BDD0
:10B5900001214020015500BF2046FEF755F8054621
:10B5A000002D28D12068C068400840002168C8608C
:10B5B000E06B00F027F80546002D03D0606C4021B9
:10B5C000084360642068406810218843216848600F
:10B5D000002D04D12046FEF7C6F8054602E02046BD
:10B5E000FEF7C1F8002D06D1606CFF2101318843C0
:10B5F00001210843606400BF00214020015500BFC5
:10B600002846C4E70146086800680E2290430A688D
:10B61000106008680068400840000A681060012057
:10B620000A6C9040CA6B506001222120425400BF36
:10B6300000222020425400BF0020704770B504460D
:10B6400000252120005D022803D00420A0630125ED
:10B650001EE0206800680E21884321680860206889
:10B66000006840084000216808600120216C884083
:10B67000E16B486001212120015500BF00212020FD
:10B68000015500BF606B002802D02046616B8847DF
:10B69000284670BD70B50446E06B056820680668F2
:10B6A0000420216C8840284000281BD00420304012
:10B6B000002817D02068006820210840002805D104
:10B6C0002068006804218843216808600420216CF8
:10B6D0008840E16B4860E06A002852D02046E16A69
:10B6E00088474EE00220216C88402840002823D063
:10B6F0000220304000281FD0206800682021084028
:10B70000002808D1206800680A2188432168086061
:10B710000121212001550220216C8840E16B486005
:10B7200000BF00212020015500BFA06A002828D0BA
:10B730002046A16A884724E00820216C88402840E0
:10B7400000281ED00820304000281AD02068006849
:10B750000E218843216808600120216C8840E16B3C
:10B7600048600120A06301212120015500BF002174
:10B770002020015500BF206B002802D02046216BFD
:10B78000884770BD70B504460025002C01D101200A
:10B7900070BD02212120015520680568114805402F
:10B7A000A16860680843E16808432169084361694A
:10B7B0000843A1690843E16908430543206805601F
:10B7C0002046FEF717FB0020A062E0622063606362
:10B7D000A0630121212001550021202001550020D6
:10B7E000D6E700000FC0FFFFF8B504460D46164629
:10B7F0001F460020009000BF2020005D012801D1DD
:10B800000220F8BD01212020015500BF2120005D4C
:10B8100001282DD10221212001550020A06320689C
:10B82000006840084000216808603B4632462946CF
:10B830002046FEF7EFFAE06A002806D0206800688C
:10B840000E210843216808600BE0206800680A2187
:10B850000843216808602068006804218843216843
:10B86000086020680068012108432168086006E03C
:10B8700000BF00212020015500BF02200090009849
:10B88000BFE731B500F03CF90546009C601C00287C
:10B8900000D0641C00BF00F033F9401BA042FAD373
:10B8A00038BD0000012807D0022805D0042803D0A5
:10B8B00001210903884206D103490978002902D1F0
:10B8C0000121024A11707047E6010020E5010020C5
:10B8D00010B50446054840692040002804D00348BC
:10B8E00044612046FFF7DEFF10BD00000004014068
:10B8F00078B50346002200240020DEE001269640B1
:10B900000D6835402C46002C7ED04D68022D02D0AB
:10B910004D68122D15D1D508AE001D462035A85909
:10B920005507EE0E0F25B5400646AE433046560786
:10B93000F60E0D69B5402843D508AD001E462036E9
:10B940007051186856000325B5400646AE43304690
:10B950000D79AD07AD0F5600B540284318604D680E
:10B96000012D08D04D68022D05D04D68112D02D053
:10B970004D68122D18D1986856000325B54006462B
:10B98000AE4330465600CD68B540284398605868AD
:10B99000012595400646AE43304610264D68354099
:10B9A0002D09954028435860D86856000325B540B6
:10B9B0000646AE43304656008D68B5402843D860F1
:10B9C000012636074D683540B54275D100BF3E4D62
:10B9D000AD69012635433C4EB5613546AD69ED078D
:10B9E000ED0F009500BF00BF384D9608B600A8596E
:10B9F00095072E0F0F25B5400646AE433046092564
:10BA0000ED06AB4203D100E056E000250FE0304DDB
:10BA1000AB4201D101250AE02E4DAB4201D10225F6
:10BA200005E02D4DAB4201D1032500E00525960729
:10BA3000360FB5402843254D9608B600A851274D2E
:10BA400028680546A5432846012636044D6835403A
:10BA5000B54202D1054625432846204D2860686836
:10BA60000546A5432846012676044D683540B54273
:10BA700002D1054625432846184D6860A86805464A
:10BA8000A5432846012636054D683540B54202D10A
:10BA9000054625432846114DA860E8680546A5439C
:10BAA0002846012676054D683540B54202D1054647
:10BAB00025432846094DE860521C0D68D540002DED
:10BAC00000D01BE778BD00000010024008000140D4
:10BAD0000004004800080048000C00480004014031
:10BAE000024613690B40002B01D0012000E000202A
:10BAF0007047002A01D0816100E081627047000038
:10BB000001480068704700005403002001460248C5
:10BB10000A68106000207047AAAA00000248006866
:10BB2000401C0149086070475403002010B50648C6
:10BB300000681021084304490860002000F006F85E
:10BB400000F04CF8002010BD0020024070B586B017
:10BB5000044600250026002221460D2000F086F82C
:10BB60000D2000F077F800BF174880690121C90255
:10BB700008431549886108468069C9140840009047
:10BB800000BF00BF01A902A800F046FA00F066FA63
:10BB900005460E492846FCF7E3FA461E0C480D49B7
:10BBA00008600D490B48C160466000210161816059
:10BBB00001F0A2FB002804D1064801F0E5FB06B025
:10BBC00070BD0120FBE700000010024040420F0062
:10BBD000002C01409C350020E703000008B500BFA1
:10BBE0001548806901210843134988610846806926
:10BBF000C007C00F009000BF00BF00BF0846C0696B
:10BC0000090408430C49C8610846C0690904084092
:10BC1000009000BF00BF00221146501F00F026F820
:10BC200000220321481F00F021F800220321081FF1
:10BC300000F01CF808BD00000010024000BFC20662
:10BC4000D20E01219140024A116000BF70470000EE
:10BC500080E100E000BFC206D20E01219140024AFD
:10BC6000116000BF7047000000E100E070B50446BD
:10BC70000D4616462946204604F060F970BD0000C6
:10BC800003480068FF2101310843014908607047FB
:10BC90000070004010B5024600200E4B1868800866
:10BCA00080000346134318460A4B18600A4B1B6971
:10BCB00004242343084C2361012901D130BF02E051
:10BCC00040BF20BF20BF044B1B690424A343024C88
:10BCD000236110BD0070004000ED00E0F8B504469F
:10BCE00000260025012109042068084088427AD1F5
:10BCF00000274B48C0690903084000280DD100BF48
:10BD00004748C06908434649C8610846C0690904F4
:10BD10000840009000BF00BF012742480068FF2193
:10BD200001310840002816D13E48006808433D49CB
:10BD30000860FFF7E5FE064606E0FFF7E1FE801B20
:10BD4000642801D90320F8BD36480068FF2101317D
:10BD500008400028F1D03248006A03210902084057
:10BD60000546002D2DD060680840A84229D02C48F7
:10BD7000006A884305462A48006A012109040843ED
:10BD8000274908620846006A0121090488432449BA
:10BD9000086208460562E807C00F002811D0FFF7C7
:10BDA000AFFE064607E0FFF7ABFE801B1E49884248
:10BDB00001D90320C7E71A48006A02210840002879
:10BDC000F1D01748006A03210902884361680843DB
:10BDD00013490862012F05D10846C0690904884348
:10BDE0000F49C86100BF2078C007C00F002807D0E6
:10BDF0000B48006B80088000A1680843084908636D
:10BE0000202120680840202807D10548006B102118
:10BE10008843E168084302490863002093E7000073
:10BE200000100240007000408813000070B5044606
:10BE30000D4600265D480068C007C00FA8420ED21C
:10BE40005A4800684008400028435849086008469E
:10BE50000068C007C00FA84201D0012070BD0221B8
:10BE600020680840022807D151484068F0218843E3
:10BE7000A16808434E4948602078C007C00F0028D9
:10BE80005FD06068012808D1494800680121490451
:10BE90000840002815D10120E0E76068022808D199
:10BEA00043480068012149060840002809D10120C3
:10BEB000D4E73F48006802210840002801D1012052
:10BEC000CCE73B48406880088000616808433849F7
:10BED0004860FFF715FE0646606801280FD107E0AD
:10BEE000FFF70EFE801B3349884201D90320B5E7D6
:10BEF0002F4840680C2108400428F1D121E06068F7
:10BF000002280FD107E0FFF7FBFD801B294988427B
:10BF100001D90320A2E7264840680C2108400828E0
:10BF2000F1D10EE007E0FFF7EBFD801B21498842CD
:10BF300001D9032092E71E4840680C2108400028E0
:10BF4000F1D11A480068C007C00FA8420ED917489F
:10BF5000006840084000284314490860084600680B
:10BF6000C007C00FA84201D0012077E70421206854
:10BF70000840042808D10E48406807210902884378
:10BF8000E16808430A49486000F07AF808494968BE
:10BF9000F02211400909084A515CC840074908606D
:10BFA0000020FFF7D3FD002058E7000000200240EA
:10BFB0000010024088130000FCAC01085803002068
:10BFC00010480068812108430E490860084640680F
:10BFD0000D4908400B494860084600680B49084075
:10BFE000084908600846006801218904884305491A
:10BFF000086000204860C8620863886004480549FA
:10C0000008607047001002400CF8FFF0FFFFF6FEDA
:10C0100000127A0058030020072202600A4A526880
:10C020009207920F4260084A5268F0231A408260D9
:10C03000054A526807231B021A40C260034A12686D
:10C04000D207D20F0A607047001002400020024061
:10C0500001480068704700005803002000B5FFF752
:10C06000F7FF05494968072212021140090A034AED
:10C07000515CC84000BD0000001002400CAD01083A
:10C08000F0B589B025A001460EC9C06805AC0EC444
:10C09000089026A001460EC9C06801AC0EC40490E9
:10C0A0000024002600270025002000902348446833
:10C0B0000C20204000282AD0042802D0082825D1AE
:10C0C00002E01F48009025E00F2080042040800CF3
:10C0D00005A90D5C1948C06A0007000F01A90E5C94
:10C0E0000320C003204001210904884206D13146C3
:10C0F0001348FCF735F86843074605E03146104819
:10C10000FCF72EF868430746009703E000BF0C4891
:10C11000009000BF00BF009809B0F0BD0203040505
:10C12000060708090A0B0C0D0E0F1010010203047C
:10C1300005060708090A0B0C0D0E0F10001002402F
:10C1400000127A00F8B5044600252078C007C00F19
:10C15000002872D0FA4840680C21084004280CD00E
:10C16000F74840680840082813D1F548406849035B
:10C1700008400121090488420BD1F14800680121DF
:10C180004904084000286BD06068002868D101206D
:10C19000F8BD00BF6068012807D1E94800680121A7
:10C1A00009040843E649086031E0606800280ED1C0
:10C1B000E3480068012109048843E1490860084612
:10C1C0000068012189048843DD4908601FE0606838
:10C1D00005280ED1DA480068012189040843D849AE
:10C1E000086008460068012109040843D449086032
:10C1F0000DE0D3480068012109048843D049086054
:10C2000008460068012189048843CD49086000BFC1
:10C210006068002812D0FFF773FC054606E0FFF7C0
:10C220006FFC401B642801D90320B1E7C4480068B3
:10C230000121490408400028F1D011E0FFF760FC1B
:10C24000054606E0FFF75CFC401B642801D903208B
:10C250009EE7BB4800680121490408400028F1D14D
:10C26000022120680840022862D1B54840680C21AC
:10C27000084000280CD0B2484068084008281CD16B
:10C28000AF484068490308400121C903884214D1DE
:10C29000AB48006802210840002804D0E06801286B
:10C2A00001D0012074E7A6480068F821884321697D
:10C2B000C9000843A24908603AE0E068002820D09D
:10C2C0009F480068012108439D490860FFF718FC5A
:10C2D000054606E0FFF714FC401B022801D90320A5
:10C2E00056E797480068022108400028F2D0944899
:10C2F0000068F82188432169C90008439049086013
:10C3000016E08F480068400840008D490860FFF73C
:10C31000F7FB054606E0FFF7F3FB401B022801D9B7
:10C32000032035E786480068022108400028F2D142
:10C33000082120680840082831D1E069002817D07A
:10C340007F48406A012108437D494862FFF7D8FBD6
:10C35000054606E0FFF7D4FB401B022801D9032065
:10C3600016E77748406A022108400028F2D016E01C
:10C370007348406A4008400071494862FFF7C0FBBB
:10C38000054606E0FFF7BCFB401B022801D903204D
:10C39000FEE66B48406A022108400028F2D10421E1
:10C3A00020680840042871D100266548C0698906C4
:10C3B000084000280DD100BF6148C06908436049AA
:10C3C000C8610846C06909040840009000BF00BF6A
:10C3D00001265C480068FF2101310840002816D181
:10C3E00058480068084357490860FFF789FB05462D
:10C3F00006E0FFF785FB401B642801D90320C7E650
:10C4000050480068FF21013108400028F1D000BFEA
:10C41000A068012806D14A48006A0121084348491A
:10C4200008622BE0A06800280CD14548006A40084B
:10C430004000434908620846006A04218843404995
:10C4400008621BE0A06805280CD13D48006A042161
:10C4500008433B4908620846006A012108433849FD
:10C4600008620BE03648006A400840003449086220
:10C470000846006A042188433149086200BFA06869
:10C48000002813D0FFF73CFB054608E029E0FFF742
:10C4900037FB401B2C49884201D9032078E6284805
:10C4A000006A022108400028F1D011E0FFF728FBC4
:10C4B000054607E0FFF724FB401B2349884201D9CA
:10C4C000032065E61E48006A022108400028F1D1D9
:10C4D000012E05D11A48C069310788431849C8613F
:10C4E00000BF10212068084010285FD16069012832
:10C4F0002CD11348406B0421084311494863084676
:10C50000406B012108430E494863FFF7F9FA0546DD
:10C5100006E0FFF7F5FA401B022801D9032037E6B1
:10C520000748406B022108400028F2D00448406BC5
:10C53000F8218843A169C90008430149486335E0EF
:10C540000010024000700040881300006069401D28
:10C5500000280FD14E48406B042188434C49486362
:10C560000846406BF8218843A169C900084348493F
:10C5700048631BE04648406B042108434449486334
:10C580000846406B400840004863FFF7B9FA05468B
:10C5900006E0FFF7B5FA401B022801D90320F7E5B2
:10C5A0003B48406B022108400028F2D1206A002855
:10C5B0006CD0374840680C210840082864D0206AB5
:10C5C000022847D1324800680121090688433049D2
:10C5D0000860FFF795FA054606E0FFF791FA401B61
:10C5E000022801D90320D3E5294800680121490622
:10C5F00008400028F1D100BF2548C06A00090001A9
:10C60000E16A08432249C862616AA06A0843204976
:10C6100049687B22D203914308431D49486000BF0B
:10C620000846006801210906084319490860FFF718
:10C6300067FA054606E0FFF763FA401B022801D9B6
:10C640000320A5E51248006801214906084000289A
:10C65000F1D01BE00E4800680121090688430C490F
:10C660000860FFF74DFA054606E0FFF749FA401B60
:10C67000022801D903208BE50548006801214906FD
:10C6800008400028F1D101E0012081E500207FE58C
:10C690000010024030B58BB004463548407C00287D
:10C6A00003D03448007801282DD10023FF22013225
:10C6B00001A9204600F094F80020694608714871ED
:10C6C0008979084614303C21FBF760FDC8B2694601
:10C6D0008871002002900490059027480690002061
:10C6E00007900890012008A9087100020A90002212
:10C6F00001A9204600F0A4F9002837D0FF217131AC
:10C700001EA00AF005FC0023FF22013201A92046E9
:10C7100000F066F800206946087148790521FBF7AA
:10C7200035FD81004018451D3C212846FBF72EFDB4
:10C73000C8B2694648710020887102900490059043
:10C7400012480690002007900890012008A908715F
:10C7500000020A90002201A9204600F071F9002889
:10C7600004D0FF218C3105A00AF0D2FB0BB030BD04
:10C77000583100201C020020008080802E2E2F5374
:10C7800072632F6D61696E2E63000000000080806F
:10C7900010B5044620688068012109030840000B99
:10C7A000002811D02068C06809110840000A00283C
:10C7B0000AD02046FFF76EFF2068C068802108403D
:10C7C000054908432168C8600120400403494861C5
:10C7D0000120607710BD00007FFEFFFF00040140D4
:10C7E000F8B506460C461F46002500200090FF20A5
:10C7F000013060623068C5693068406C4004400CAC
:10C8000000903F2000042840000C20707F20000290
:10C810002840000A60706806400EA0700120800564
:10C820002840000CE070009860603F20000628401F
:10C83000010E2020015540062840E0610C482840A8
:10C840006061002F11D1207803F01CFD207060780A
:10C8500003F018FD6070A07803F014FDA070202193
:10C86000085D03F00FFD202108550020F8BD0000F1
:10C8700080808080F0B506460C461746002530685B
:10C880004068124908400546FF2000042840000C7B
:10C89000E0701F2000022840000A6070A806800E89
:10C8A000A070072040032840400B2070002F0BD1C0
:10C8B000E07803F0E7FCE070607803F0E3FC607080
:10C8C000A07803F0DFFCA0700020F0BD3FFFFF0068
:10C8D000F0B505460C46174600262868806A606059
:10C8E000286800694004400CA0602868006812496C
:10C8F000084006463F2000043040000C20707F2096
:10C9000000023040000A60707006400EA0700120E6
:10C9100080053040000CE070002F0BD1207803F030
:10C92000B1FC2070607803F0ADFC6070A07803F07B
:10C93000A9FCA0700020F0BD7F7F7F0010B50446E9
:10C94000002C01D1012010BD607F002803D1207789
:10C95000204600F065F80220607700BFCA202168F9
:10C96000486253202168486200BF204603F0A4FCBF
:10C97000002808D000BFFF202168486200BF0420C3
:10C9800060770120DFE7206880682449084021683B
:10C990008860216960680843616908432168896883
:10C9A0000843216888602168E068086120680069A0
:10C9B000218909040843216808612068C068802132
:10C9C00088432168C86020688068202108400028CA
:10C9D0000DD1204600F040FA002808D000BFFF200B
:10C9E0002168486200BF042060770120ABE720681F
:10C9F000006C012189048843216808642068006C68
:10CA0000A16908432168086400BFFF2021684862CB
:10CA100000BF01206077002095E70000BFFF8FFF77
:10CA2000054A0168914205D10449096AD2131143AC
:10CA3000024A1162704700000028004000100240C6
:10CA4000FEB504460D4616460027002001900090D2
:10CA500000BF207F012801D10220FEBD01202077E8
:10CA600000BF02206077002E2AD120688068402114
:10CA70000840002800D002E00020E87000BFE8690C
:10CA8000002800D100E000BF287803F008FC030470
:10CA9000687803F004FC00020343A87803F0FFFB6E
:10CAA0000343E878000403432021485D03F0F7FBCB
:10CAB00000060343E86903436869034301932FE0D9
:10CAC0002068806840210840002804D0287803F0BE
:10CAD000D9FB019002E00020E87000BFE86900285F
:10CAE00005D12021485D03F0CDFB019005E0202118
:10CAF000485D03F0C7FB019000BF28780004697807
:10CB000009020843A9780843E97809040843202169
:10CB1000495D09060843E9690843696908430190CA
:10CB2000A96968680843009000BFCA20216848626C
:10CB300053202168486200BF20688068FF210131CE
:10CB40008843216888602068C0688021084028499F
:10CB500008432168C860FEF7D3FF074613E0FEF7DD
:10CB6000CFFFC01B7D21C90088420CD900BFFF2028
:10CB70002168486200BF0320607700BF0020207753
:10CB800000BF032069E72068C068C007C00F002805
:10CB9000E5D001982168C861009821684864206840
:10CBA0008068FF210131084321688860206880681F
:10CBB000012109030843216888600E4800680121AB
:10CBC000490408430B49086008468068012149046C
:10CBD00008430849886000BFFF202168486200BF01
:10CBE0000120607700BF0020207700BF00BF34E73E
:10CBF0007FFEFFFF00040140F8B504460D461646CF
:10CC0000002700BF207F012801D10220F8BD0120AC
:10CC1000207700BF02206077002E09D168781021AC
:10CC20000840102804D16878EF2108400A30687065
:10CC3000002E11D1E87803F032FB0304687803F08A
:10CC40002EFB00020343A87803F029FB0343287856
:10CC5000400303431F4612E0687803F013FB0746C6
:10CC6000A87803F00FFB0746E8780004697809020A
:10CC70000843A9780843297849030843074600BFB9
:10CC8000CA202168486253202168486200BF2046BC
:10CC900003F012FB00280CD000BFFF20216848627F
:10CCA00000BF0420607700BF0020207700BF012074
:10CCB000ACE717483840216848602068C068802188
:10CCC00088432168C86020688068202108400028C7
:10CCD00011D1204600F0C0F800280CD000BFFF2082
:10CCE0002168486200BF0420607700BF00202077E1
:10CCF00000BF01208AE700BFFF202168486200BF13
:10CD00000120607700BF0020207700BF00BF7DE7D3
:10CD10003FFFFF00F8B504460D461646002700BF4A
:10CD2000207F012801D10220F8BD0120207700BF1B
:10CD300002206077002E1BD12068806840210840C7
:10CD4000002800D002E00020E87000BF287803F03F
:10CD5000A6FA0304687803F0A2FA00020343A87855
:10CD600003F09DFA0343E878000403431F4618E0EC
:10CD70002068806840210840002804D0287803F00B
:10CD800081FA074602E00020E87000BF287800041E
:10CD9000697809020843A9780843E9780904084337
:10CDA000074600BFCA2021684862532021684862B4
:10CDB00000BF204603F080FA00280CD000BFFF20FF
:10CDC0002168486200BF0420607700BF0020207700
:10CDD00000BF0120A8E71F4838402168086020688C
:10CDE0008068012189048843216888602969E8688E
:10CDF0000843216889680843216888602068C06802
:10CE0000802188432168C86020688068202108400C
:10CE1000002811D1204600F01FF800280CD000BFD8
:10CE2000FF202168486200BF0420607700BF002017
:10CE3000207700BF012077E700BFFF20216848620C
:10CE400000BF0120607700BF0020207700BF00BF37
:10CE50006AE700007F7F7F0070B5044600252068E8
:10CE6000C068A02188432168C860FEF749FE0546D6
:10CE700008E0FEF745FE401B7D21C900884201D92C
:10CE8000032070BD2068C068202108400028F0D031
:10CE90000020F6E770B50446002C01D1012070BDDA
:10CEA000606A002800D100BF0021A1625D20005D02
:10CEB000002804D15C200155204600F059F80221D9
:10CEC0005D20015520680068402188432168086082
:10CED00007210902E068884201D9002501E0012507
:10CEE0002D030F210902E068884206D007210902BC
:10CEF000E068884201D00021A162206B002809D19E
:10CF000007210902E068884202D90221216301E079
:10CF100001212163A16860680843216908436169B0
:10CF2000084301225202A16911400843E169084304
:10CF3000216A0843A16A084321680860A069000CBF
:10CF400004210840616A0843616B0843E1680843B3
:10CF50002843216848602068C0699100884321689F
:10CF6000C8610020206601215D200155002096E760
:10CF700010B586B004461249206888421DD100BF12
:10CF80001048C069091408430E49C8610846C069C1
:10CF9000012189030840009000BF00BF0720400323
:10CFA00001900220029000200390032004900020B2
:10CFB000059001A90448FEF79BFC06B010BD0000D7
:10CFC000003800400010024000040048F0B585B071
:10CFD00004460D4616461F4600200490039002901A
:10CFE000012001900020009007210902E06888429A
:10CFF00001D8012F00D900BF00BF5C20005D0128CF
:10D0000002D1022005B0F0BD01215C20015500BF16
:10D01000FEF776FD02905D20005D0490606803904D
:10D02000049801280DD0FF2105310398884205D1CD
:10D03000A068002802D10498042802D002200090A1
:10D040001FE1002D03D0002E01D0002F02D10120BE
:10D05000009016E15D20005D042802D005215D20CE
:10D0600001550020206626644620075344200753BC
:10D07000A563E787A7870020E064206507210902F0
:10D08000E068884203D84620005B012807D9206861
:10D0900040680121090388432168486006E0206850
:10D0A000406801210903084321684860206800683E
:10D0B00040210840402804D02068006808432168C7
:10D0C000086007210902E06888424ED9606800289C
:10D0D00002D0E08F012806D128882168C860AD1CE5
:10D0E000E08F401EE08738E00198002811D0E08FE3
:10D0F00000280ED02068806802210840022808D14C
:10D1000028882168C860AD1CE08F401EE0870020A1
:10D1100001904620005B002811D020688068C0077D
:10D12000C00F00280BD02068C0683080B61C462095
:10D13000005B401E81B246200153012001900A98F5
:10D14000401C002809D0FEF7DBFC0299411A0A981E
:10D15000814202D30320009093E0E08F0028C3D1E6
:10D160004620005B0028BFD17CE06068002802D028
:10D17000E08F012811D1E08F012807D92888216884
:10D18000C860AD1CE08F801EE08706E0287821682B
:10D1900008736D1CE08F401EE0875CE0019800285A
:10D1A0001CD0E08F002819D0206880680221084038
:10D1B000022813D1E08F012807D928882168C86088
:10D1C000AD1CE08F801EE08706E028782168087398
:10D1D0006D1CE08F401EE087002001904620005B20
:10D1E00000282AD020688068C007C00F002824D0FB
:10D1F0004620005B012814D92068C0683080B61C26
:10D200004620005B801E81B246200153005B01284E
:10D2100011D820684068012109030843216848604B
:10D2200009E02068007B3070761C4620005B401EC1
:10D2300081B246200153012001900A98401C002829
:10D2400009D0FEF75DFC0299411A0A98814202D387
:10D250000320009015E0E08F00289FD14620005B5E
:10D2600000289BD12046029A0A9903F057FE002815
:10D2700001D020202066206E002801D001200090DF
:10D2800000BF01215D20015500BF00215C20015538
:10D2900000BF0098B6E60000042806D106490969D7
:10D2A00004221143044A116105E00349096904227B
:10D2B0009143014A1161704700E000E070B50446F7
:10D2C0002546681E0949884201D901200CE0681EE4
:10D2D000074948610321081F02F030FE002004497D
:10D2E000886107200861002070BD0000FFFFFF007B
:10D2F00000E000E07047704710B50446002C01D1F3
:10D30000012010BD3D20005D002805D100213C20FA
:10D310000155204600F00CF802213D200155211D49
:10D32000206809F053F901213D2001550020E8E76C
:10D3300008B5124A016891420DD100BF1049C96970
:10D34000102211430E4AD1611146C96910221140C1
:10D35000009100BF11E00B4A016891420DD100BF5E
:10D360000749C96920221143054AD1611146C9699B
:10D3700020221140009100BF00BF08BD00100040F6
:10D38000001002400014004001460868C0680122F5
:10D3900010430A68D06008680068012210430A68D8
:10D3A000106000207047000001460868C06840080F
:10D3B00040000A68D06000BF0868006A094A10404F
:10D3C00000280BD10868006A92101040002805D18F
:10D3D00008680068400840000A68106000BF00202C
:10D3E0007047000011110000704710B50446206816
:10D3F000006902210840400800281CD02068C0684D
:10D4000008404008002816D0481F21680861012004
:10D410002077206880698007800F002803D020468D
:10D42000FFF7E2FF05E0204600F0C3F8204600F0D9
:10D43000C1F8002020772068006904210840800896
:10D4400000281DD02068C06808408008002817D038
:10D45000C843216808610220207720688069032181
:10D4600009020840002803D02046FFF7BDFF05E071
:10D47000204600F09EF8204600F09CF8002020771F
:10D480002068006908210840C00800281CD02068D6
:10D49000C0680840C008002816D0C8432168086149
:10D4A000042020772068C0698007800F002803D0FF
:10D4B0002046FFF799FF05E0204600F07AF8204665
:10D4C00000F078F8002020772068006910210840DB
:10D4D000000900281DD02068C06808400009002805
:10D4E00017D0C84321680861082020772068C069E8
:10D4F000032109020840002803D02046FFF774FFEB
:10D5000005E0204600F055F8204600F053F80020D2
:10D51000207720680069C007C00F012148404840BB
:10D5200000280CD02068C0680840484048400028C7
:10D5300005D0C81E21680861204600F03DF820682B
:10D54000006980210840C00900280BD02068C0680D
:10D550000840C009002805D0C8432168086120465A
:10D56000FFF7C8FE206800694021084080090028B4
:10D570000BD02068C06808408009002805D0C84347
:10D5800021680861204600F075F8206800692021B4
:10D590000840400900280BD02068C06808404009B6
:10D5A000002805D0C843216808612046FFF7A3FE84
:10D5B00010BD70477047000010B504462049206830
:10D5C000884201D1FEF7AAFA1E492068884209D193
:10D5D0001D480068401C1C4908601C480068401C2D
:10D5E0001A4908601A492068884227D119480078EA
:10D5F000012803D018480078012808D11748FDF702
:10D600006BF91748027817491448FDF757FF164879
:10D610000068002804D014480068401E12490860C1
:10D6200012480068401C1149086011480068002831
:10D6300004D00F480068401E0D49086010BD00006E
:10D64000002C0140001000408C0100205C020020F2
:10D65000001400409A01002099010020BC2F0020F6
:10D6600098010020F42E0020F00100205802002034
:10D670006402002070477047F8B504462068C56909
:10D68000206806682807000F0090009800280BD13A
:10D6900020202840002807D020203040002803D038
:10D6A000204609F0F0F8F8BD206887680098002847
:10D6B0007ED0F807C00F002804D1FF202130304071
:10D6C0000028F5D0E807C00F00280BD0FF2001305C
:10D6D0003040002806D0012021680862E06E012158
:10D6E0000843E0660220284000280AD0F807C00F4F
:10D6F000002806D0022021680862E06E0421084359
:10D70000E0660420284000280AD0F807C00F00284F
:10D7100006D0042021680862E06E02210843E0661A
:10D720000820284000280ED020203040002803D1B7
:10D73000F807C00F002806D0082021680862E06EB4
:10D7400008210843E066E06E002841D020202840F0
:10D75000002806D020203040002802D0204609F0C2
:10D7600092F8E06E08210840002805D12068806802
:10D7700040210840002826D0204609F059F82068AA
:10D78000806840210840002819D0206880688843BC
:10D7900021688860606E00280DD01B48616E486368
:10D7A000606EFDF74BFF002812D0606E416B00E009
:10D7B0000FE088470CE02046FFF75DFF08E02046B9
:10D7C000FFF759FF04E02046FFF755FF0020E06611
:10D7D00069E780202840002807D0802030400028BA
:10D7E00003D0204609F0A8F95DE740202840002832
:10D7F00007D040203040002803D0204609F029F807
:10D8000051E700BF4FE700007B67010810B50446F1
:10D81000002C01D1012010BDA069002800D000E03B
:10D8200000BF6920005D002805D100216820015556
:10D83000204600F02DF82421692001552068006859
:10D840004008400021680860204609F063F801287C
:10D8500000D1E0E7606A002802D0204608F006FF09
:10D86000206840680121C902884321684860206817
:10D870008068082188432168886020680068012149
:10D88000084321680860204608F068FFC3E70000ED
:10D8900010B586B004463A49206888424BD100BF93
:10D8A0003848C0690121490408433649C86108461F
:10D8B000C069012149040840009000BF00BF0C204E
:10D8C0000190022002900020039003200490012088
:10D8D000059001A90920C006FEF70AF82A482B493D
:10D8E0000860102048600021284881608021C160C4
:10D8F0000021016141618161C161FDF743FF0028A1
:10D9000003D0912122A009F003FB00BF1E48643020
:10D91000806AF02188431C49643188620846806A25
:10D920009021084318496431886200BF00BF17483E
:10D930002066446221E01A49206888421DD100BF58
:10D940001048C0690121890408430E49C86108468E
:10D95000C069012189040840009000BF00BF302049
:10D9600001900220029000200390032004900120E7
:10D97000059001A90B48FDF7BBFF06B010BD0000E4
:10D9800000440040001002401C00024058350020B6
:10D990002E2E2F5372632F75736172742E630000E5
:10D9A000004800400008004810B503466A20C05CEB
:10D9B00020286AD1002901D0002A01D1012010BD00
:10D9C000012424039868A04208D11869002805D1D1
:10D9D000C807C00F002801D00120F0E700BF682071
:10D9E000C05C012801D10220E9E701246820C45469
:10D9F00000BF59655820C2525A20C25200BF2403AA
:10DA00009868A0420AD11869002803D1204C5C20F4
:10DA1000C45220E0FF245C20C4521CE09868002817
:10DA20000AD11869002803D1FF245C20C45212E0F7
:10DA30007F245C20C4520EE0012424079868A04291
:10DA400009D11869002803D17F245C20C45202E068
:10DA50003F245C20C45200BF0020D86622246A20E4
:10DA6000C45400BF00246820C45400BF18688068F4
:10DA7000012420431C68A06018680068FF2421343A
:10DA800020431C682060002099E7022097E70000EF
:10DA9000FF01000070B5044600252B4884424DD19B
:10DAA0002A484078C007C00F002827D12848007AAC
:10DAB000002823D000202749096848622448C088EC
:10DAC000002806D1801E2349096808612148FFF714
:10DAD0005BFCFEF715F81D493839C8601C48017A0F
